BL51 BANKED LINKER/LOCATER V6.22                                                        05/04/2021  11:33:00  PAGE 1


BL51 BANKED LINKER/LOCATER V6.22, INVOKED BY:
C:\KEIL\C51\BIN\BL51.EXE main.obj, commond.obj TO MCULearning RAMSIZE (256)


MEMORY MODEL: SMALL


INPUT MODULES INCLUDED:
  main.obj (MAIN)
  commond.obj (COMMOND)
  C:\KEIL\C51\LIB\C51S.LIB (?C_STARTUP)


LINK MAP OF MODULE:  MCULearning (MAIN)


            TYPE    BASE      LENGTH    RELOCATION   SEGMENT NAME
            -----------------------------------------------------

            * * * * * * *   D A T A   M E M O R Y   * * * * * * *
            REG     0000H     0008H     ABSOLUTE     "REG BANK 0"
            IDATA   0008H     0001H     UNIT         ?STACK

            * * * * * * *   C O D E   M E M O R Y   * * * * * * *
            CODE    0000H     0003H     ABSOLUTE     
            CODE    0003H     0038H     UNIT         ?PR?LED_WATERLAMP?COMMOND
            CODE    003BH     0013H     UNIT         ?PR?_DELAY?COMMOND
            CODE    004EH     000CH     UNIT         ?PR?LED_BRIGHT?COMMOND
            CODE    005AH     000CH     UNIT         ?C_C51STARTUP
            CODE    0066H     0004H     UNIT         ?PR?BEEP?COMMOND
            CODE    006AH     0003H     UNIT         ?PR?MAIN?MAIN



OVERLAY MAP OF MODULE:   MCULearning (MAIN)


SEGMENT
  +--> CALLED SEGMENT
---------------------
?C_C51STARTUP
  +--> ?PR?MAIN?MAIN

?PR?MAIN?MAIN
  +--> ?PR?LED_WATERLAMP?COMMOND

?PR?LED_WATERLAMP?COMMOND
  +--> ?PR?_DELAY?COMMOND



SYMBOL TABLE OF MODULE:  MCULearning (MAIN)

  VALUE           TYPE          NAME
  ----------------------------------

  -------         MODULE        MAIN
  C:0000H         SYMBOL        _ICE_DUMMY_
BL51 BANKED LINKER/LOCATER V6.22                                                      05/04/2021  11:33:00  PAGE 2


  D:0090H         PUBLIC        P1
  D:00B0H         PUBLIC        P3
  D:00A8H         PUBLIC        IE
  D:00B8H         PUBLIC        IP
  C:006AH         PUBLIC        main
  D:0098H         PUBLIC        SCON
  D:0088H         PUBLIC        TCON
  D:00C8H         PUBLIC        T2CON
  D:00D0H         PUBLIC        PSW
  -------         PROC          MAIN
  C:006AH         LINE#         11
  C:006AH         LINE#         13
  -------         ENDPROC       MAIN
  -------         ENDMOD        MAIN

  -------         MODULE        COMMOND
  C:0000H         SYMBOL        _ICE_DUMMY_
  D:0090H         PUBLIC        P1
  D:00A0H         PUBLIC        P2
  D:00B0H         PUBLIC        P3
  D:00A8H         PUBLIC        IE
  B:00A0H.5       PUBLIC        sbeep
  C:0043H         PUBLIC        _delay
  D:00B8H         PUBLIC        IP
  C:004EH         PUBLIC        led_bright
  C:0066H         PUBLIC        beep
  D:0098H         PUBLIC        SCON
  D:0088H         PUBLIC        TCON
  B:00A0H.0       PUBLIC        led
  B:00A0H.0       PUBLIC        LED
  D:00C8H         PUBLIC        T2CON
  C:0003H         PUBLIC        led_waterlamp
  D:00D0H         PUBLIC        PSW
  C:003FH         SYMBOL        L?0025
  -------         PROC          L?0024
  -------         ENDPROC       L?0024
  C:003FH         SYMBOL        L?0025
  -------         PROC          _DELAY
  D:0006H         SYMBOL        i
  C:0043H         LINE#         7
  C:0043H         LINE#         8
  C:004DH         LINE#         9
  -------         ENDPROC       _DELAY
  -------         PROC          LED_BRIGHT
  C:004EH         LINE#         12
  C:004EH         LINE#         13
  C:004EH         LINE#         14
  C:0050H         LINE#         15
  C:0053H         LINE#         16
  C:0055H         LINE#         17
  C:0058H         LINE#         19
  -------         ENDPROC       LED_BRIGHT
  -------         PROC          LED_WATERLAMP
  -------         DO            
  D:0005H         SYMBOL        i
  -------         ENDDO         
  C:0003H         LINE#         23
BL51 BANKED LINKER/LOCATER V6.22                                                      05/04/2021  11:33:00  PAGE 3


  C:0003H         LINE#         24
  C:0005H         LINE#         25
  C:0007H         LINE#         26
  C:000AH         LINE#         28
  C:000AH         LINE#         29
  C:000CH         LINE#         30
  C:0019H         LINE#         31
  C:001CH         LINE#         32
  C:0020H         LINE#         33
  C:0028H         LINE#         34
  C:0035H         LINE#         35
  C:0038H         LINE#         36
  -------         ENDPROC       LED_WATERLAMP
  -------         PROC          BEEP
  C:0066H         LINE#         41
  C:0066H         LINE#         42
  C:0066H         LINE#         43
  C:0068H         LINE#         44
  -------         ENDPROC       BEEP
  -------         ENDMOD        COMMOND

*** WARNING L16: UNCALLED SEGMENT, IGNORED FOR OVERLAY PROCESS
    SEGMENT: ?PR?LED_BRIGHT?COMMOND

*** WARNING L16: UNCALLED SEGMENT, IGNORED FOR OVERLAY PROCESS
    SEGMENT: ?PR?BEEP?COMMOND

Program Size: data=9.0 xdata=0 code=109
LINK/LOCATE RUN COMPLETE.  2 WARNING(S),  0 ERROR(S)
